{
  "transactions": [
    {
      "hash": "0xfeb0b1913718109682dcebaa5365b7542d203a45e84e332659478a945367204a",
      "transactionType": "CALL",
      "contractName": null,
      "contractAddress": "0x289a09f3d30c5ce1f6877f2c8f8b76f6ee60654d",
      "function": "approve(address,uint256)",
      "arguments": [
        "0xA7f2db6756feb28890Ad7a68f4F29bE35E7C6161",
        "10"
      ],
      "transaction": {
        "from": "0xf9783a69241536a19ae249a19d49f6542cf84bf5",
        "to": "0x289a09f3d30c5ce1f6877f2c8f8b76f6ee60654d",
        "gas": "0x10c02",
        "value": "0x0",
        "input": "0x095ea7b3000000000000000000000000a7f2db6756feb28890ad7a68f4f29be35e7c6161000000000000000000000000000000000000000000000000000000000000000a",
        "nonce": "0x12",
        "chainId": "0xaa36a7"
      },
      "additionalContracts": [],
      "isFixedGasLimit": false
    },
    {
      "hash": "0xec2976bb232e57d4b4993d0202c21a8429a1c4f63d04abf32e39de72466e36e2",
      "transactionType": "CALL",
      "contractName": null,
      "contractAddress": "0xa7f2db6756feb28890ad7a68f4f29be35e7c6161",
      "function": "deposit(uint256,address,uint256,uint256)",
      "arguments": [
        "11155111",
        "0xF1E2D5F52559A76828640a3A77f3A395bDcEf018",
        "10",
        "4"
      ],
      "transaction": {
        "from": "0xf9783a69241536a19ae249a19d49f6542cf84bf5",
        "to": "0xa7f2db6756feb28890ad7a68f4f29be35e7c6161",
        "gas": "0x1b6a2",
        "value": "0x0",
        "input": "0x6f0372af0000000000000000000000000000000000000000000000000000000000aa36a7000000000000000000000000f1e2d5f52559a76828640a3a77f3a395bdcef018000000000000000000000000000000000000000000000000000000000000000a0000000000000000000000000000000000000000000000000000000000000004",
        "nonce": "0x13",
        "chainId": "0xaa36a7"
      },
      "additionalContracts": [],
      "isFixedGasLimit": false
    }
  ],
  "receipts": [
    {
      "status": "0x1",
      "cumulativeGasUsed": "0x5e73aa",
      "logs": [
        {
          "address": "0x289a09f3d30c5ce1f6877f2c8f8b76f6ee60654d",
          "topics": [
            "0x8c5be1e5ebec7d5bd14f71427d1e84f3dd0314c0f7b2291e5b200ac8c7c3b925",
            "0x000000000000000000000000f9783a69241536a19ae249a19d49f6542cf84bf5",
            "0x000000000000000000000000a7f2db6756feb28890ad7a68f4f29be35e7c6161"
          ],
          "data": "0x000000000000000000000000000000000000000000000000000000000000000a",
          "blockHash": "0x1b74e12df84d2c6376f8e84bf0ed7461ea534548a9d2abe1f5b4b8df88b8f4e4",
          "blockNumber": "0x930856",
          "blockTimestamp": "0x69189f48",
          "transactionHash": "0xfeb0b1913718109682dcebaa5365b7542d203a45e84e332659478a945367204a",
          "transactionIndex": "0x1f",
          "logIndex": "0x1b",
          "removed": false
        }
      ],
      "logsBloom": "0x00000000000000000000000000000000000000000000000000000000000000000000000000000000000000000000000000000000000000000000000000200000000000000000000000000000000000000000000000000000000000000000000010000000000000000000000000000000000000002000000000000000000000000000000000000000000000000000000000000000000000000000000000002000020000000000000000000000000000000000000080000000000000000000000000004800000800000000000000000000000000000000000000000000000000000010000000000800000000000000000000000020000000000000000000000000",
      "type": "0x2",
      "transactionHash": "0xfeb0b1913718109682dcebaa5365b7542d203a45e84e332659478a945367204a",
      "transactionIndex": "0x1f",
      "blockHash": "0x1b74e12df84d2c6376f8e84bf0ed7461ea534548a9d2abe1f5b4b8df88b8f4e4",
      "blockNumber": "0x930856",
      "gasUsed": "0xb741",
      "effectiveGasPrice": "0xf424b",
      "from": "0xf9783a69241536a19ae249a19d49f6542cf84bf5",
      "to": "0x289a09f3d30c5ce1f6877f2c8f8b76f6ee60654d",
      "contractAddress": null
    },
    {
      "status": "0x1",
      "cumulativeGasUsed": "0x5fb13a",
      "logs": [
        {
          "address": "0x289a09f3d30c5ce1f6877f2c8f8b76f6ee60654d",
          "topics": [
            "0xddf252ad1be2c89b69c2b068fc378daa952ba7f163c4a11628f55a4df523b3ef",
            "0x000000000000000000000000f9783a69241536a19ae249a19d49f6542cf84bf5",
            "0x000000000000000000000000a7f2db6756feb28890ad7a68f4f29be35e7c6161"
          ],
          "data": "0x000000000000000000000000000000000000000000000000000000000000000a",
          "blockHash": "0x1b74e12df84d2c6376f8e84bf0ed7461ea534548a9d2abe1f5b4b8df88b8f4e4",
          "blockNumber": "0x930856",
          "blockTimestamp": "0x69189f48",
          "transactionHash": "0xec2976bb232e57d4b4993d0202c21a8429a1c4f63d04abf32e39de72466e36e2",
          "transactionIndex": "0x20",
          "logIndex": "0x1c",
          "removed": false
        },
        {
          "address": "0x289a09f3d30c5ce1f6877f2c8f8b76f6ee60654d",
          "topics": [
            "0xddf252ad1be2c89b69c2b068fc378daa952ba7f163c4a11628f55a4df523b3ef",
            "0x000000000000000000000000a7f2db6756feb28890ad7a68f4f29be35e7c6161",
            "0x0000000000000000000000000000000000000000000000000000000000000000"
          ],
          "data": "0x000000000000000000000000000000000000000000000000000000000000000a",
          "blockHash": "0x1b74e12df84d2c6376f8e84bf0ed7461ea534548a9d2abe1f5b4b8df88b8f4e4",
          "blockNumber": "0x930856",
          "blockTimestamp": "0x69189f48",
          "transactionHash": "0xec2976bb232e57d4b4993d0202c21a8429a1c4f63d04abf32e39de72466e36e2",
          "transactionIndex": "0x20",
          "logIndex": "0x1d",
          "removed": false
        },
        {
          "address": "0xa7f2db6756feb28890ad7a68f4f29be35e7c6161",
          "topics": [
            "0x6a7b4b4de67d42edc5a43dd8bb598338e29e72e277cef089c6ad4ffe3aa61060",
            "0x000000000000000000000000f9783a69241536a19ae249a19d49f6542cf84bf5",
            "0x0000000000000000000000000000000000000000000000000000000000aa36a7",
            "0x000000000000000000000000f1e2d5f52559a76828640a3a77f3a395bdcef018"
          ],
          "data": "0x000000000000000000000000000000000000000000000000000000000000000a0000000000000000000000000000000000000000000000000000000000000004",
          "blockHash": "0x1b74e12df84d2c6376f8e84bf0ed7461ea534548a9d2abe1f5b4b8df88b8f4e4",
          "blockNumber": "0x930856",
          "blockTimestamp": "0x69189f48",
          "transactionHash": "0xec2976bb232e57d4b4993d0202c21a8429a1c4f63d04abf32e39de72466e36e2",
          "transactionIndex": "0x20",
          "logIndex": "0x1e",
          "removed": false
        }
      ],
      "logsBloom": "0x00000000000000000800000000000000000000000000040000000000000120000000000000000000000000000000000002000010000000000000000000000000000000000000000200000008000000000000000000000000000000000000000010000000020000000000000010000800000000002000080000000010000000000000000000000000000000000000000000000000000000000000000000002000000000000000000000000000000000000000000080000000000000000200000000004802000800000000000000000000100000000000000000000000000020000000000000000800000000000002000000000020000000000000000000000000",
      "type": "0x2",
      "transactionHash": "0xec2976bb232e57d4b4993d0202c21a8429a1c4f63d04abf32e39de72466e36e2",
      "transactionIndex": "0x20",
      "blockHash": "0x1b74e12df84d2c6376f8e84bf0ed7461ea534548a9d2abe1f5b4b8df88b8f4e4",
      "blockNumber": "0x930856",
      "gasUsed": "0x13d90",
      "effectiveGasPrice": "0xf424b",
      "from": "0xf9783a69241536a19ae249a19d49f6542cf84bf5",
      "to": "0xa7f2db6756feb28890ad7a68f4f29be35e7c6161",
      "contractAddress": null
    }
  ],
  "libraries": [],
  "pending": [],
  "returns": {},
  "timestamp": 1763221320565,
  "chain": 11155111,
  "commit": "87b10d0"
}