{
  "transactions": [
    {
      "hash": "0xe16dd61f20cfe0a62e87c7749f454eb29edec8b1eeb1b5c96182615c4634a120",
      "transactionType": "CALL",
      "contractName": null,
      "contractAddress": "0x289a09f3d30c5ce1f6877f2c8f8b76f6ee60654d",
      "function": "approve(address,uint256)",
      "arguments": [
        "0xA7f2db6756feb28890Ad7a68f4F29bE35E7C6161",
        "10"
      ],
      "transaction": {
        "from": "0xf9783a69241536a19ae249a19d49f6542cf84bf5",
        "to": "0x289a09f3d30c5ce1f6877f2c8f8b76f6ee60654d",
        "gas": "0x10c02",
        "value": "0x0",
        "input": "0x095ea7b3000000000000000000000000a7f2db6756feb28890ad7a68f4f29be35e7c6161000000000000000000000000000000000000000000000000000000000000000a",
        "nonce": "0xb",
        "chainId": "0xaa36a7"
      },
      "additionalContracts": [],
      "isFixedGasLimit": false
    },
    {
      "hash": "0xd8330f760e3c86781242629c2a2f6c628097e55e68cd1531e29b4743a7068db7",
      "transactionType": "CALL",
      "contractName": null,
      "contractAddress": "0xa7f2db6756feb28890ad7a68f4f29be35e7c6161",
      "function": "deposit(uint256,address,uint256,uint256)",
      "arguments": [
        "11155111",
        "0xF9783a69241536a19Ae249A19d49F6542CF84BF5",
        "10",
        "1"
      ],
      "transaction": {
        "from": "0xf9783a69241536a19ae249a19d49f6542cf84bf5",
        "to": "0xa7f2db6756feb28890ad7a68f4f29be35e7c6161",
        "gas": "0x1b6a2",
        "value": "0x0",
        "input": "0x6f0372af0000000000000000000000000000000000000000000000000000000000aa36a7000000000000000000000000f9783a69241536a19ae249a19d49f6542cf84bf5000000000000000000000000000000000000000000000000000000000000000a0000000000000000000000000000000000000000000000000000000000000001",
        "nonce": "0xc",
        "chainId": "0xaa36a7"
      },
      "additionalContracts": [],
      "isFixedGasLimit": false
    }
  ],
  "receipts": [
    {
      "status": "0x1",
      "cumulativeGasUsed": "0x55ec34",
      "logs": [
        {
          "address": "0x289a09f3d30c5ce1f6877f2c8f8b76f6ee60654d",
          "topics": [
            "0x8c5be1e5ebec7d5bd14f71427d1e84f3dd0314c0f7b2291e5b200ac8c7c3b925",
            "0x000000000000000000000000f9783a69241536a19ae249a19d49f6542cf84bf5",
            "0x000000000000000000000000a7f2db6756feb28890ad7a68f4f29be35e7c6161"
          ],
          "data": "0x000000000000000000000000000000000000000000000000000000000000000a",
          "blockHash": "0x5bc0848da85fb5b897558c6e0a0efea7e9eb75f582800a66f595279d71032881",
          "blockNumber": "0x9307ac",
          "blockTimestamp": "0x691896cc",
          "transactionHash": "0xe16dd61f20cfe0a62e87c7749f454eb29edec8b1eeb1b5c96182615c4634a120",
          "transactionIndex": "0x20",
          "logIndex": "0x5a",
          "removed": false
        }
      ],
      "logsBloom": "0x00000000000000000000000000000000000000000000000000000000000000000000000000000000000000000000000000000000000000000000000000200000000000000000000000000000000000000000000000000000000000000000000010000000000000000000000000000000000000002000000000000000000000000000000000000000000000000000000000000000000000000000000000002000020000000000000000000000000000000000000080000000000000000000000000004800000800000000000000000000000000000000000000000000000000000010000000000800000000000000000000000020000000000000000000000000",
      "type": "0x2",
      "transactionHash": "0xe16dd61f20cfe0a62e87c7749f454eb29edec8b1eeb1b5c96182615c4634a120",
      "transactionIndex": "0x20",
      "blockHash": "0x5bc0848da85fb5b897558c6e0a0efea7e9eb75f582800a66f595279d71032881",
      "blockNumber": "0x9307ac",
      "gasUsed": "0xb741",
      "effectiveGasPrice": "0xf424a",
      "from": "0xf9783a69241536a19ae249a19d49f6542cf84bf5",
      "to": "0x289a09f3d30c5ce1f6877f2c8f8b76f6ee60654d",
      "contractAddress": null
    },
    {
      "status": "0x1",
      "cumulativeGasUsed": "0x5729c4",
      "logs": [
        {
          "address": "0x289a09f3d30c5ce1f6877f2c8f8b76f6ee60654d",
          "topics": [
            "0xddf252ad1be2c89b69c2b068fc378daa952ba7f163c4a11628f55a4df523b3ef",
            "0x000000000000000000000000f9783a69241536a19ae249a19d49f6542cf84bf5",
            "0x000000000000000000000000a7f2db6756feb28890ad7a68f4f29be35e7c6161"
          ],
          "data": "0x000000000000000000000000000000000000000000000000000000000000000a",
          "blockHash": "0x5bc0848da85fb5b897558c6e0a0efea7e9eb75f582800a66f595279d71032881",
          "blockNumber": "0x9307ac",
          "blockTimestamp": "0x691896cc",
          "transactionHash": "0xd8330f760e3c86781242629c2a2f6c628097e55e68cd1531e29b4743a7068db7",
          "transactionIndex": "0x21",
          "logIndex": "0x5b",
          "removed": false
        },
        {
          "address": "0x289a09f3d30c5ce1f6877f2c8f8b76f6ee60654d",
          "topics": [
            "0xddf252ad1be2c89b69c2b068fc378daa952ba7f163c4a11628f55a4df523b3ef",
            "0x000000000000000000000000a7f2db6756feb28890ad7a68f4f29be35e7c6161",
            "0x0000000000000000000000000000000000000000000000000000000000000000"
          ],
          "data": "0x000000000000000000000000000000000000000000000000000000000000000a",
          "blockHash": "0x5bc0848da85fb5b897558c6e0a0efea7e9eb75f582800a66f595279d71032881",
          "blockNumber": "0x9307ac",
          "blockTimestamp": "0x691896cc",
          "transactionHash": "0xd8330f760e3c86781242629c2a2f6c628097e55e68cd1531e29b4743a7068db7",
          "transactionIndex": "0x21",
          "logIndex": "0x5c",
          "removed": false
        },
        {
          "address": "0xa7f2db6756feb28890ad7a68f4f29be35e7c6161",
          "topics": [
            "0x6a7b4b4de67d42edc5a43dd8bb598338e29e72e277cef089c6ad4ffe3aa61060",
            "0x000000000000000000000000f9783a69241536a19ae249a19d49f6542cf84bf5",
            "0x0000000000000000000000000000000000000000000000000000000000aa36a7",
            "0x000000000000000000000000f9783a69241536a19ae249a19d49f6542cf84bf5"
          ],
          "data": "0x000000000000000000000000000000000000000000000000000000000000000a0000000000000000000000000000000000000000000000000000000000000001",
          "blockHash": "0x5bc0848da85fb5b897558c6e0a0efea7e9eb75f582800a66f595279d71032881",
          "blockNumber": "0x9307ac",
          "blockTimestamp": "0x691896cc",
          "transactionHash": "0xd8330f760e3c86781242629c2a2f6c628097e55e68cd1531e29b4743a7068db7",
          "transactionIndex": "0x21",
          "logIndex": "0x5d",
          "removed": false
        }
      ],
      "logsBloom": "0x00000000000000000800000000000000000000000000040000000000000120000000000000000000000000000000000002000000000000000000000000000000000000000000000000000008000000000000000000000000000000000000000010000000020000000000000010000800000000002000000000000010000000000000000000000000000000000000000000000000000000000000000000002000000000000000000000000000000000000000000080000000000000000200000000004802000800000000000000000000100000000000000000000000000020000000000000000800000000000002000000000020000000000000000000000000",
      "type": "0x2",
      "transactionHash": "0xd8330f760e3c86781242629c2a2f6c628097e55e68cd1531e29b4743a7068db7",
      "transactionIndex": "0x21",
      "blockHash": "0x5bc0848da85fb5b897558c6e0a0efea7e9eb75f582800a66f595279d71032881",
      "blockNumber": "0x9307ac",
      "gasUsed": "0x13d90",
      "effectiveGasPrice": "0xf424a",
      "from": "0xf9783a69241536a19ae249a19d49f6542cf84bf5",
      "to": "0xa7f2db6756feb28890ad7a68f4f29be35e7c6161",
      "contractAddress": null
    }
  ],
  "libraries": [],
  "pending": [],
  "returns": {},
  "timestamp": 1763219149927,
  "chain": 11155111,
  "commit": "87b10d0"
}