{
  "transactions": [
    {
      "hash": "0x4db362f67b362ad61423eef84a4bf42397e2c0e38d2e3bb3f84a4d716da43c64",
      "transactionType": "CALL",
      "contractName": null,
      "contractAddress": "0x289a09f3d30c5ce1f6877f2c8f8b76f6ee60654d",
      "function": "approve(address,uint256)",
      "arguments": [
        "0xA7f2db6756feb28890Ad7a68f4F29bE35E7C6161",
        "10"
      ],
      "transaction": {
        "from": "0xf9783a69241536a19ae249a19d49f6542cf84bf5",
        "to": "0x289a09f3d30c5ce1f6877f2c8f8b76f6ee60654d",
        "gas": "0x10c02",
        "value": "0x0",
        "input": "0x095ea7b3000000000000000000000000a7f2db6756feb28890ad7a68f4f29be35e7c6161000000000000000000000000000000000000000000000000000000000000000a",
        "nonce": "0x15",
        "chainId": "0xaa36a7"
      },
      "additionalContracts": [],
      "isFixedGasLimit": false
    },
    {
      "hash": "0x5a2063cc5050c2219057b29f95c1c8dd0b214a62d69122fbab8cb8d3a9e2eb71",
      "transactionType": "CALL",
      "contractName": null,
      "contractAddress": "0xa7f2db6756feb28890ad7a68f4f29be35e7c6161",
      "function": "deposit(uint256,address,uint256,uint256)",
      "arguments": [
        "11155111",
        "0xF1E2D5F52559A76828640a3A77f3A395bDcEf018",
        "10",
        "5"
      ],
      "transaction": {
        "from": "0xf9783a69241536a19ae249a19d49f6542cf84bf5",
        "to": "0xa7f2db6756feb28890ad7a68f4f29be35e7c6161",
        "gas": "0x1b6a2",
        "value": "0x0",
        "input": "0x6f0372af0000000000000000000000000000000000000000000000000000000000aa36a7000000000000000000000000f1e2d5f52559a76828640a3a77f3a395bdcef018000000000000000000000000000000000000000000000000000000000000000a0000000000000000000000000000000000000000000000000000000000000005",
        "nonce": "0x16",
        "chainId": "0xaa36a7"
      },
      "additionalContracts": [],
      "isFixedGasLimit": false
    }
  ],
  "receipts": [
    {
      "status": "0x1",
      "cumulativeGasUsed": "0x4e612d",
      "logs": [
        {
          "address": "0x289a09f3d30c5ce1f6877f2c8f8b76f6ee60654d",
          "topics": [
            "0x8c5be1e5ebec7d5bd14f71427d1e84f3dd0314c0f7b2291e5b200ac8c7c3b925",
            "0x000000000000000000000000f9783a69241536a19ae249a19d49f6542cf84bf5",
            "0x000000000000000000000000a7f2db6756feb28890ad7a68f4f29be35e7c6161"
          ],
          "data": "0x000000000000000000000000000000000000000000000000000000000000000a",
          "blockHash": "0x4c96028a649fdf5f177be7e02458e198b9d45c035d9cbcb9d4574545b4e03991",
          "blockNumber": "0x93088b",
          "blockTimestamp": "0x6918a218",
          "transactionHash": "0x4db362f67b362ad61423eef84a4bf42397e2c0e38d2e3bb3f84a4d716da43c64",
          "transactionIndex": "0x26",
          "logIndex": "0x50",
          "removed": false
        }
      ],
      "logsBloom": "0x00000000000000000000000000000000000000000000000000000000000000000000000000000000000000000000000000000000000000000000000000200000000000000000000000000000000000000000000000000000000000000000000010000000000000000000000000000000000000002000000000000000000000000000000000000000000000000000000000000000000000000000000000002000020000000000000000000000000000000000000080000000000000000000000000004800000800000000000000000000000000000000000000000000000000000010000000000800000000000000000000000020000000000000000000000000",
      "type": "0x2",
      "transactionHash": "0x4db362f67b362ad61423eef84a4bf42397e2c0e38d2e3bb3f84a4d716da43c64",
      "transactionIndex": "0x26",
      "blockHash": "0x4c96028a649fdf5f177be7e02458e198b9d45c035d9cbcb9d4574545b4e03991",
      "blockNumber": "0x93088b",
      "gasUsed": "0xb741",
      "effectiveGasPrice": "0xf424a",
      "from": "0xf9783a69241536a19ae249a19d49f6542cf84bf5",
      "to": "0x289a09f3d30c5ce1f6877f2c8f8b76f6ee60654d",
      "contractAddress": null
    },
    {
      "status": "0x1",
      "cumulativeGasUsed": "0x4f9ebd",
      "logs": [
        {
          "address": "0x289a09f3d30c5ce1f6877f2c8f8b76f6ee60654d",
          "topics": [
            "0xddf252ad1be2c89b69c2b068fc378daa952ba7f163c4a11628f55a4df523b3ef",
            "0x000000000000000000000000f9783a69241536a19ae249a19d49f6542cf84bf5",
            "0x000000000000000000000000a7f2db6756feb28890ad7a68f4f29be35e7c6161"
          ],
          "data": "0x000000000000000000000000000000000000000000000000000000000000000a",
          "blockHash": "0x4c96028a649fdf5f177be7e02458e198b9d45c035d9cbcb9d4574545b4e03991",
          "blockNumber": "0x93088b",
          "blockTimestamp": "0x6918a218",
          "transactionHash": "0x5a2063cc5050c2219057b29f95c1c8dd0b214a62d69122fbab8cb8d3a9e2eb71",
          "transactionIndex": "0x27",
          "logIndex": "0x51",
          "removed": false
        },
        {
          "address": "0x289a09f3d30c5ce1f6877f2c8f8b76f6ee60654d",
          "topics": [
            "0xddf252ad1be2c89b69c2b068fc378daa952ba7f163c4a11628f55a4df523b3ef",
            "0x000000000000000000000000a7f2db6756feb28890ad7a68f4f29be35e7c6161",
            "0x0000000000000000000000000000000000000000000000000000000000000000"
          ],
          "data": "0x000000000000000000000000000000000000000000000000000000000000000a",
          "blockHash": "0x4c96028a649fdf5f177be7e02458e198b9d45c035d9cbcb9d4574545b4e03991",
          "blockNumber": "0x93088b",
          "blockTimestamp": "0x6918a218",
          "transactionHash": "0x5a2063cc5050c2219057b29f95c1c8dd0b214a62d69122fbab8cb8d3a9e2eb71",
          "transactionIndex": "0x27",
          "logIndex": "0x52",
          "removed": false
        },
        {
          "address": "0xa7f2db6756feb28890ad7a68f4f29be35e7c6161",
          "topics": [
            "0x6a7b4b4de67d42edc5a43dd8bb598338e29e72e277cef089c6ad4ffe3aa61060",
            "0x000000000000000000000000f9783a69241536a19ae249a19d49f6542cf84bf5",
            "0x0000000000000000000000000000000000000000000000000000000000aa36a7",
            "0x000000000000000000000000f1e2d5f52559a76828640a3a77f3a395bdcef018"
          ],
          "data": "0x000000000000000000000000000000000000000000000000000000000000000a0000000000000000000000000000000000000000000000000000000000000005",
          "blockHash": "0x4c96028a649fdf5f177be7e02458e198b9d45c035d9cbcb9d4574545b4e03991",
          "blockNumber": "0x93088b",
          "blockTimestamp": "0x6918a218",
          "transactionHash": "0x5a2063cc5050c2219057b29f95c1c8dd0b214a62d69122fbab8cb8d3a9e2eb71",
          "transactionIndex": "0x27",
          "logIndex": "0x53",
          "removed": false
        }
      ],
      "logsBloom": "0x00000000000000000800000000000000000000000000040000000000000120000000000000000000000000000000000002000010000000000000000000000000000000000000000200000008000000000000000000000000000000000000000010000000020000000000000010000800000000002000080000000010000000000000000000000000000000000000000000000000000000000000000000002000000000000000000000000000000000000000000080000000000000000200000000004802000800000000000000000000100000000000000000000000000020000000000000000800000000000002000000000020000000000000000000000000",
      "type": "0x2",
      "transactionHash": "0x5a2063cc5050c2219057b29f95c1c8dd0b214a62d69122fbab8cb8d3a9e2eb71",
      "transactionIndex": "0x27",
      "blockHash": "0x4c96028a649fdf5f177be7e02458e198b9d45c035d9cbcb9d4574545b4e03991",
      "blockNumber": "0x93088b",
      "gasUsed": "0x13d90",
      "effectiveGasPrice": "0xf424a",
      "from": "0xf9783a69241536a19ae249a19d49f6542cf84bf5",
      "to": "0xa7f2db6756feb28890ad7a68f4f29be35e7c6161",
      "contractAddress": null
    }
  ],
  "libraries": [],
  "pending": [],
  "returns": {},
  "timestamp": 1763222040783,
  "chain": 11155111,
  "commit": "87b10d0"
}