{
  "transactions": [
    {
      "hash": "0x293675178feb20da104d78a2f69236371f5d5f0f868171a79b6d6d55b28f9bc5",
      "transactionType": "CALL",
      "contractName": null,
      "contractAddress": "0x289a09f3d30c5ce1f6877f2c8f8b76f6ee60654d",
      "function": "approve(address,uint256)",
      "arguments": [
        "0xA7f2db6756feb28890Ad7a68f4F29bE35E7C6161",
        "10"
      ],
      "transaction": {
        "from": "0xf9783a69241536a19ae249a19d49f6542cf84bf5",
        "to": "0x289a09f3d30c5ce1f6877f2c8f8b76f6ee60654d",
        "gas": "0x10c02",
        "value": "0x0",
        "input": "0x095ea7b3000000000000000000000000a7f2db6756feb28890ad7a68f4f29be35e7c6161000000000000000000000000000000000000000000000000000000000000000a",
        "nonce": "0xd",
        "chainId": "0xaa36a7"
      },
      "additionalContracts": [],
      "isFixedGasLimit": false
    },
    {
      "hash": "0x60017b862e836e6aa107929b9db1e1125caf97cfd81cafd803d85eb62002199c",
      "transactionType": "CALL",
      "contractName": null,
      "contractAddress": "0xa7f2db6756feb28890ad7a68f4f29be35e7c6161",
      "function": "deposit(uint256,address,uint256,uint256)",
      "arguments": [
        "11155111",
        "0xF9783a69241536a19Ae249A19d49F6542CF84BF5",
        "10",
        "2"
      ],
      "transaction": {
        "from": "0xf9783a69241536a19ae249a19d49f6542cf84bf5",
        "to": "0xa7f2db6756feb28890ad7a68f4f29be35e7c6161",
        "gas": "0x1b6a2",
        "value": "0x0",
        "input": "0x6f0372af0000000000000000000000000000000000000000000000000000000000aa36a7000000000000000000000000f9783a69241536a19ae249a19d49f6542cf84bf5000000000000000000000000000000000000000000000000000000000000000a0000000000000000000000000000000000000000000000000000000000000002",
        "nonce": "0xe",
        "chainId": "0xaa36a7"
      },
      "additionalContracts": [],
      "isFixedGasLimit": false
    }
  ],
  "receipts": [
    {
      "status": "0x1",
      "cumulativeGasUsed": "0xa4b425",
      "logs": [
        {
          "address": "0x289a09f3d30c5ce1f6877f2c8f8b76f6ee60654d",
          "topics": [
            "0x8c5be1e5ebec7d5bd14f71427d1e84f3dd0314c0f7b2291e5b200ac8c7c3b925",
            "0x000000000000000000000000f9783a69241536a19ae249a19d49f6542cf84bf5",
            "0x000000000000000000000000a7f2db6756feb28890ad7a68f4f29be35e7c6161"
          ],
          "data": "0x000000000000000000000000000000000000000000000000000000000000000a",
          "blockHash": "0xcbbe997f0a918dd556395d015d72df5e7ecf63bde64f2f7de1a5d82be0bb2a1f",
          "blockNumber": "0x9307d1",
          "blockTimestamp": "0x691898ac",
          "transactionHash": "0x293675178feb20da104d78a2f69236371f5d5f0f868171a79b6d6d55b28f9bc5",
          "transactionIndex": "0x2c",
          "logIndex": "0x6c",
          "removed": false
        }
      ],
      "logsBloom": "0x00000000000000000000000000000000000000000000000000000000000000000000000000000000000000000000000000000000000000000000000000200000000000000000000000000000000000000000000000000000000000000000000010000000000000000000000000000000000000002000000000000000000000000000000000000000000000000000000000000000000000000000000000002000020000000000000000000000000000000000000080000000000000000000000000004800000800000000000000000000000000000000000000000000000000000010000000000800000000000000000000000020000000000000000000000000",
      "type": "0x2",
      "transactionHash": "0x293675178feb20da104d78a2f69236371f5d5f0f868171a79b6d6d55b28f9bc5",
      "transactionIndex": "0x2c",
      "blockHash": "0xcbbe997f0a918dd556395d015d72df5e7ecf63bde64f2f7de1a5d82be0bb2a1f",
      "blockNumber": "0x9307d1",
      "gasUsed": "0xb741",
      "effectiveGasPrice": "0x106741",
      "from": "0xf9783a69241536a19ae249a19d49f6542cf84bf5",
      "to": "0x289a09f3d30c5ce1f6877f2c8f8b76f6ee60654d",
      "contractAddress": null
    },
    {
      "status": "0x1",
      "cumulativeGasUsed": "0xa5f1b5",
      "logs": [
        {
          "address": "0x289a09f3d30c5ce1f6877f2c8f8b76f6ee60654d",
          "topics": [
            "0xddf252ad1be2c89b69c2b068fc378daa952ba7f163c4a11628f55a4df523b3ef",
            "0x000000000000000000000000f9783a69241536a19ae249a19d49f6542cf84bf5",
            "0x000000000000000000000000a7f2db6756feb28890ad7a68f4f29be35e7c6161"
          ],
          "data": "0x000000000000000000000000000000000000000000000000000000000000000a",
          "blockHash": "0xcbbe997f0a918dd556395d015d72df5e7ecf63bde64f2f7de1a5d82be0bb2a1f",
          "blockNumber": "0x9307d1",
          "blockTimestamp": "0x691898ac",
          "transactionHash": "0x60017b862e836e6aa107929b9db1e1125caf97cfd81cafd803d85eb62002199c",
          "transactionIndex": "0x2d",
          "logIndex": "0x6d",
          "removed": false
        },
        {
          "address": "0x289a09f3d30c5ce1f6877f2c8f8b76f6ee60654d",
          "topics": [
            "0xddf252ad1be2c89b69c2b068fc378daa952ba7f163c4a11628f55a4df523b3ef",
            "0x000000000000000000000000a7f2db6756feb28890ad7a68f4f29be35e7c6161",
            "0x0000000000000000000000000000000000000000000000000000000000000000"
          ],
          "data": "0x000000000000000000000000000000000000000000000000000000000000000a",
          "blockHash": "0xcbbe997f0a918dd556395d015d72df5e7ecf63bde64f2f7de1a5d82be0bb2a1f",
          "blockNumber": "0x9307d1",
          "blockTimestamp": "0x691898ac",
          "transactionHash": "0x60017b862e836e6aa107929b9db1e1125caf97cfd81cafd803d85eb62002199c",
          "transactionIndex": "0x2d",
          "logIndex": "0x6e",
          "removed": false
        },
        {
          "address": "0xa7f2db6756feb28890ad7a68f4f29be35e7c6161",
          "topics": [
            "0x6a7b4b4de67d42edc5a43dd8bb598338e29e72e277cef089c6ad4ffe3aa61060",
            "0x000000000000000000000000f9783a69241536a19ae249a19d49f6542cf84bf5",
            "0x0000000000000000000000000000000000000000000000000000000000aa36a7",
            "0x000000000000000000000000f9783a69241536a19ae249a19d49f6542cf84bf5"
          ],
          "data": "0x000000000000000000000000000000000000000000000000000000000000000a0000000000000000000000000000000000000000000000000000000000000002",
          "blockHash": "0xcbbe997f0a918dd556395d015d72df5e7ecf63bde64f2f7de1a5d82be0bb2a1f",
          "blockNumber": "0x9307d1",
          "blockTimestamp": "0x691898ac",
          "transactionHash": "0x60017b862e836e6aa107929b9db1e1125caf97cfd81cafd803d85eb62002199c",
          "transactionIndex": "0x2d",
          "logIndex": "0x6f",
          "removed": false
        }
      ],
      "logsBloom": "0x00000000000000000800000000000000000000000000040000000000000120000000000000000000000000000000000002000000000000000000000000000000000000000000000000000008000000000000000000000000000000000000000010000000020000000000000010000800000000002000000000000010000000000000000000000000000000000000000000000000000000000000000000002000000000000000000000000000000000000000000080000000000000000200000000004802000800000000000000000000100000000000000000000000000020000000000000000800000000000002000000000020000000000000000000000000",
      "type": "0x2",
      "transactionHash": "0x60017b862e836e6aa107929b9db1e1125caf97cfd81cafd803d85eb62002199c",
      "transactionIndex": "0x2d",
      "blockHash": "0xcbbe997f0a918dd556395d015d72df5e7ecf63bde64f2f7de1a5d82be0bb2a1f",
      "blockNumber": "0x9307d1",
      "gasUsed": "0x13d90",
      "effectiveGasPrice": "0x106741",
      "from": "0xf9783a69241536a19ae249a19d49f6542cf84bf5",
      "to": "0xa7f2db6756feb28890ad7a68f4f29be35e7c6161",
      "contractAddress": null
    }
  ],
  "libraries": [],
  "pending": [],
  "returns": {},
  "timestamp": 1763219631230,
  "chain": 11155111,
  "commit": "87b10d0"
}