{
  "transactions": [
    {
      "hash": "0xbd600c512a2cef49ced8a21ec8d7940e340b7c35877c7f02627ddcef4b31678a",
      "transactionType": "CALL",
      "contractName": null,
      "contractAddress": "0x289a09f3d30c5ce1f6877f2c8f8b76f6ee60654d",
      "function": "mint(address,uint256)",
      "arguments": [
        "0xF9783a69241536a19Ae249A19d49F6542CF84BF5",
        "100"
      ],
      "transaction": {
        "from": "0xf9783a69241536a19ae249a19d49f6542cf84bf5",
        "to": "0x289a09f3d30c5ce1f6877f2c8f8b76f6ee60654d",
        "gas": "0x197a4",
        "value": "0x0",
        "input": "0x40c10f19000000000000000000000000f9783a69241536a19ae249a19d49f6542cf84bf50000000000000000000000000000000000000000000000000000000000000064",
        "nonce": "0x5",
        "chainId": "0xaa36a7"
      },
      "additionalContracts": [],
      "isFixedGasLimit": false
    }
  ],
  "receipts": [
    {
      "status": "0x1",
      "cumulativeGasUsed": "0xee650e",
      "logs": [
        {
          "address": "0x289a09f3d30c5ce1f6877f2c8f8b76f6ee60654d",
          "topics": [
            "0xddf252ad1be2c89b69c2b068fc378daa952ba7f163c4a11628f55a4df523b3ef",
            "0x0000000000000000000000000000000000000000000000000000000000000000",
            "0x000000000000000000000000f9783a69241536a19ae249a19d49f6542cf84bf5"
          ],
          "data": "0x0000000000000000000000000000000000000000000000000000000000000064",
          "blockHash": "0x1329e65d2e75e87b2d24403210400e240c13e2c52537fcc516be3af67a080b64",
          "blockNumber": "0x930275",
          "blockTimestamp": "0x691852d4",
          "transactionHash": "0xbd600c512a2cef49ced8a21ec8d7940e340b7c35877c7f02627ddcef4b31678a",
          "transactionIndex": "0x3b",
          "logIndex": "0x179",
          "removed": false
        }
      ],
      "logsBloom": "0x00000000000000000000000000000000000000000000000000000000000000000000000000000000000000000000000000000000000000000000000000000000000000000000000000000008000000000000000000000000000000000000000010000000020000000000000000000800000000000000000000000010000000000000000000000000000000000000000000000000000000000000000000002000000000000000000000000000000000000000000080000000000000000000000000000802000800000000000000000000000000000000000000000000000020000000000000000800000000000000000000000000000000000000000000000000",
      "type": "0x2",
      "transactionHash": "0xbd600c512a2cef49ced8a21ec8d7940e340b7c35877c7f02627ddcef4b31678a",
      "transactionIndex": "0x3b",
      "blockHash": "0x1329e65d2e75e87b2d24403210400e240c13e2c52537fcc516be3af67a080b64",
      "blockNumber": "0x930275",
      "gasUsed": "0x116bb",
      "effectiveGasPrice": "0x10c8df",
      "from": "0xf9783a69241536a19ae249a19d49f6542cf84bf5",
      "to": "0x289a09f3d30c5ce1f6877f2c8f8b76f6ee60654d",
      "contractAddress": null
    }
  ],
  "libraries": [],
  "pending": [],
  "returns": {},
  "timestamp": 1763201750038,
  "chain": 11155111,
  "commit": "87b10d0"
}