{
  "transactions": [
    {
      "hash": "0x47431faed406e372c5efee48e32eb20058abf1a95c9a22ef8e9bf88bffcef8bb",
      "transactionType": "CALL",
      "contractName": null,
      "contractAddress": "0x5fbdb2315678afecb367f032d93f642f64180aa3",
      "function": "approve(address,uint256)",
      "arguments": [
        "0xe7f1725E7734CE288F8367e1Bb143E90bb3F0512",
        "100"
      ],
      "transaction": {
        "from": "0x70997970c51812dc3a010c7d01b50e0d17dc79c8",
        "to": "0x5fbdb2315678afecb367f032d93f642f64180aa3",
        "gas": "0x10c02",
        "value": "0x0",
        "input": "0x095ea7b3000000000000000000000000e7f1725e7734ce288f8367e1bb143e90bb3f05120000000000000000000000000000000000000000000000000000000000000064",
        "nonce": "0x0",
        "chainId": "0x539"
      },
      "additionalContracts": [],
      "isFixedGasLimit": false
    },
    {
      "hash": "0x0579beade6aaf2c9e4f9e385514ff8c6fb7e9729d2821371e34d41a74e0e4bf8",
      "transactionType": "CALL",
      "contractName": null,
      "contractAddress": "0xe7f1725e7734ce288f8367e1bb143e90bb3f0512",
      "function": "deposit(uint256,address,uint256,uint256)",
      "arguments": [
        "1338",
        "0x70997970C51812dc3A010C7d01b50e0d17dc79C8",
        "100",
        "1"
      ],
      "transaction": {
        "from": "0x70997970c51812dc3a010c7d01b50e0d17dc79c8",
        "to": "0xe7f1725e7734ce288f8367e1bb143e90bb3f0512",
        "gas": "0x1b693",
        "value": "0x0",
        "input": "0x6f0372af000000000000000000000000000000000000000000000000000000000000053a00000000000000000000000070997970c51812dc3a010c7d01b50e0d17dc79c800000000000000000000000000000000000000000000000000000000000000640000000000000000000000000000000000000000000000000000000000000001",
        "nonce": "0x1",
        "chainId": "0x539"
      },
      "additionalContracts": [],
      "isFixedGasLimit": false
    }
  ],
  "receipts": [
    {
      "status": "0x1",
      "cumulativeGasUsed": "0xb741",
      "logs": [
        {
          "address": "0x5fbdb2315678afecb367f032d93f642f64180aa3",
          "topics": [
            "0x8c5be1e5ebec7d5bd14f71427d1e84f3dd0314c0f7b2291e5b200ac8c7c3b925",
            "0x00000000000000000000000070997970c51812dc3a010c7d01b50e0d17dc79c8",
            "0x000000000000000000000000e7f1725e7734ce288f8367e1bb143e90bb3f0512"
          ],
          "data": "0x0000000000000000000000000000000000000000000000000000000000000064",
          "blockHash": "0xc087ae54e955b3cffdf35ce3db259448ca7e0f145718967c867d34cb45e1042e",
          "blockNumber": "0x5",
          "blockTimestamp": "0x691626b7",
          "transactionHash": "0x47431faed406e372c5efee48e32eb20058abf1a95c9a22ef8e9bf88bffcef8bb",
          "transactionIndex": "0x0",
          "logIndex": "0x0",
          "removed": false
        }
      ],
      "logsBloom": "0x00000000000000000402000000000000000000000000000000000000000000000000000000000000000000000000000000000000000000000000000000200000000000000000000000000000000000000000000000000000000000000000000000000840000000000000000000000000000000000000000000000004000000000000000000000000000000000000000000000000000000000000000200000000020000000000000000000002000000000000000000000000000000000000000000000040000000000000000000000000000000000000000000000000000000000010000000000000000000000000000001000000000000000000000000000000",
      "type": "0x2",
      "transactionHash": "0x47431faed406e372c5efee48e32eb20058abf1a95c9a22ef8e9bf88bffcef8bb",
      "transactionIndex": "0x0",
      "blockHash": "0xc087ae54e955b3cffdf35ce3db259448ca7e0f145718967c867d34cb45e1042e",
      "blockNumber": "0x5",
      "gasUsed": "0xb741",
      "effectiveGasPrice": "0x23c50d96",
      "blobGasPrice": "0x1",
      "from": "0x70997970c51812dc3a010c7d01b50e0d17dc79c8",
      "to": "0x5fbdb2315678afecb367f032d93f642f64180aa3",
      "contractAddress": null
    },
    {
      "status": "0x1",
      "cumulativeGasUsed": "0x13d86",
      "logs": [
        {
          "address": "0x5fbdb2315678afecb367f032d93f642f64180aa3",
          "topics": [
            "0xddf252ad1be2c89b69c2b068fc378daa952ba7f163c4a11628f55a4df523b3ef",
            "0x00000000000000000000000070997970c51812dc3a010c7d01b50e0d17dc79c8",
            "0x000000000000000000000000e7f1725e7734ce288f8367e1bb143e90bb3f0512"
          ],
          "data": "0x0000000000000000000000000000000000000000000000000000000000000064",
          "blockHash": "0xe756daa5fbcc6f2a3d0ea209a8f41b1610b2f5f3d3b1ea9e429d067311aa4366",
          "blockNumber": "0x6",
          "blockTimestamp": "0x691626b7",
          "transactionHash": "0x0579beade6aaf2c9e4f9e385514ff8c6fb7e9729d2821371e34d41a74e0e4bf8",
          "transactionIndex": "0x0",
          "logIndex": "0x0",
          "removed": false
        },
        {
          "address": "0x5fbdb2315678afecb367f032d93f642f64180aa3",
          "topics": [
            "0xddf252ad1be2c89b69c2b068fc378daa952ba7f163c4a11628f55a4df523b3ef",
            "0x000000000000000000000000e7f1725e7734ce288f8367e1bb143e90bb3f0512",
            "0x0000000000000000000000000000000000000000000000000000000000000000"
          ],
          "data": "0x0000000000000000000000000000000000000000000000000000000000000064",
          "blockHash": "0xe756daa5fbcc6f2a3d0ea209a8f41b1610b2f5f3d3b1ea9e429d067311aa4366",
          "blockNumber": "0x6",
          "blockTimestamp": "0x691626b7",
          "transactionHash": "0x0579beade6aaf2c9e4f9e385514ff8c6fb7e9729d2821371e34d41a74e0e4bf8",
          "transactionIndex": "0x0",
          "logIndex": "0x1",
          "removed": false
        },
        {
          "address": "0xe7f1725e7734ce288f8367e1bb143e90bb3f0512",
          "topics": [
            "0x6a7b4b4de67d42edc5a43dd8bb598338e29e72e277cef089c6ad4ffe3aa61060",
            "0x00000000000000000000000070997970c51812dc3a010c7d01b50e0d17dc79c8",
            "0x000000000000000000000000000000000000000000000000000000000000053a",
            "0x00000000000000000000000070997970c51812dc3a010c7d01b50e0d17dc79c8"
          ],
          "data": "0x00000000000000000000000000000000000000000000000000000000000000640000000000000000000000000000000000000000000000000000000000000001",
          "blockHash": "0xe756daa5fbcc6f2a3d0ea209a8f41b1610b2f5f3d3b1ea9e429d067311aa4366",
          "blockNumber": "0x6",
          "blockTimestamp": "0x691626b7",
          "transactionHash": "0x0579beade6aaf2c9e4f9e385514ff8c6fb7e9729d2821371e34d41a74e0e4bf8",
          "transactionIndex": "0x0",
          "logIndex": "0x2",
          "removed": false
        }
      ],
      "logsBloom": "0x00000000000000000402000000000000000000000000040000000000000120000000000000000000000000000000000010000000000000000000000000000000000000000000000000000008000000000000000000000000000000000000000000000840020000000000000000000800020000000000000000000014000000000000000000000000000000000000000000000000000000000000000200000000000000000000000000000002000000000000000000000000000000000000000000000042000000000000004000021000000000000000000000000000000020000000000000000000000000000000000001000000000000800000000000000000",
      "type": "0x2",
      "transactionHash": "0x0579beade6aaf2c9e4f9e385514ff8c6fb7e9729d2821371e34d41a74e0e4bf8",
      "transactionIndex": "0x0",
      "blockHash": "0xe756daa5fbcc6f2a3d0ea209a8f41b1610b2f5f3d3b1ea9e429d067311aa4366",
      "blockNumber": "0x6",
      "gasUsed": "0x13d86",
      "effectiveGasPrice": "0x1f500056",
      "blobGasPrice": "0x1",
      "from": "0x70997970c51812dc3a010c7d01b50e0d17dc79c8",
      "to": "0xe7f1725e7734ce288f8367e1bb143e90bb3f0512",
      "contractAddress": null
    }
  ],
  "libraries": [],
  "pending": [],
  "returns": {},
  "timestamp": 1763059383831,
  "chain": 1337,
  "commit": "87b10d0"
}