{
  "transactions": [
    {
      "hash": "0xc8a7a09ebf86d3e19cbff9ee16e5f08da6c040b7851edb44d0b7cabca28c4922",
      "transactionType": "CALL",
      "contractName": null,
      "contractAddress": "0x5fbdb2315678afecb367f032d93f642f64180aa3",
      "function": "mint(address,uint256)",
      "arguments": [
        "0x70997970C51812dc3A010C7d01b50e0d17dc79C8",
        "100"
      ],
      "transaction": {
        "from": "0xf39fd6e51aad88f6f4ce6ab8827279cfffb92266",
        "to": "0x5fbdb2315678afecb367f032d93f642f64180aa3",
        "gas": "0xd442",
        "value": "0x0",
        "input": "0x40c10f1900000000000000000000000070997970c51812dc3a010c7d01b50e0d17dc79c80000000000000000000000000000000000000000000000000000000000000064",
        "nonce": "0x7",
        "chainId": "0x539"
      },
      "additionalContracts": [],
      "isFixedGasLimit": false
    }
  ],
  "receipts": [
    {
      "status": "0x1",
      "cumulativeGasUsed": "0x9123",
      "logs": [
        {
          "address": "0x5fbdb2315678afecb367f032d93f642f64180aa3",
          "topics": [
            "0xddf252ad1be2c89b69c2b068fc378daa952ba7f163c4a11628f55a4df523b3ef",
            "0x0000000000000000000000000000000000000000000000000000000000000000",
            "0x00000000000000000000000070997970c51812dc3a010c7d01b50e0d17dc79c8"
          ],
          "data": "0x0000000000000000000000000000000000000000000000000000000000000064",
          "blockHash": "0x8156f1deeeb0cce9a50511b13917af86ddeab37258c3ab9b3b33bd93208e43e0",
          "blockNumber": "0x6",
          "blockTimestamp": "0x69184e47",
          "transactionHash": "0xc8a7a09ebf86d3e19cbff9ee16e5f08da6c040b7851edb44d0b7cabca28c4922",
          "transactionIndex": "0x0",
          "logIndex": "0x0",
          "removed": false
        }
      ],
      "logsBloom": "0x00000000000000000002000000000000000000000000000000000000000000000000000000000000000000000000000000000000000000000000000000000000000000000000000000000008000000000000000000000000000000000000000000000840020000000000000000000800000000000000000000000010000000000000000000000000000000000000000000000000000000000000000200000000000000000000000000000000000000000000000000000000000000000000000000000042000000000000000000000000000000000000000000000000000020000000000000000000000000000000000001000000000000000000000000000000",
      "type": "0x2",
      "transactionHash": "0xc8a7a09ebf86d3e19cbff9ee16e5f08da6c040b7851edb44d0b7cabca28c4922",
      "transactionIndex": "0x0",
      "blockHash": "0x8156f1deeeb0cce9a50511b13917af86ddeab37258c3ab9b3b33bd93208e43e0",
      "blockNumber": "0x6",
      "gasUsed": "0x9123",
      "effectiveGasPrice": "0x1f4f480b",
      "blobGasPrice": "0x1",
      "from": "0xf39fd6e51aad88f6f4ce6ab8827279cfffb92266",
      "to": "0x5fbdb2315678afecb367f032d93f642f64180aa3",
      "contractAddress": null
    }
  ],
  "libraries": [],
  "pending": [],
  "returns": {},
  "timestamp": 1763200583378,
  "chain": 1337,
  "commit": "87b10d0"
}