{
  "transactions": [
    {
      "hash": "0x045062a8e9aa9d306ebf07799525cee8518f090f10c5126147f3f101d0ebdb21",
      "transactionType": "CALL",
      "contractName": null,
      "contractAddress": "0x5fbdb2315678afecb367f032d93f642f64180aa3",
      "function": "approve(address,uint256)",
      "arguments": [
        "0xe7f1725E7734CE288F8367e1Bb143E90bb3F0512",
        "100"
      ],
      "transaction": {
        "from": "0x70997970c51812dc3a010c7d01b50e0d17dc79c8",
        "to": "0x5fbdb2315678afecb367f032d93f642f64180aa3",
        "gas": "0x10c02",
        "value": "0x0",
        "input": "0x095ea7b3000000000000000000000000e7f1725e7734ce288f8367e1bb143e90bb3f05120000000000000000000000000000000000000000000000000000000000000064",
        "nonce": "0x0",
        "chainId": "0x539"
      },
      "additionalContracts": [],
      "isFixedGasLimit": false
    },
    {
      "hash": "0x1489175bbb859f7c2c0f0ecaa19c2838a4217ea681392635d4b99e65e1da7907",
      "transactionType": "CALL",
      "contractName": null,
      "contractAddress": "0xe7f1725e7734ce288f8367e1bb143e90bb3f0512",
      "function": "deposit(uint256,address,uint256,uint256)",
      "arguments": [
        "1338",
        "0x70997970C51812dc3A010C7d01b50e0d17dc79C8",
        "100",
        "1"
      ],
      "transaction": {
        "from": "0x70997970c51812dc3a010c7d01b50e0d17dc79c8",
        "to": "0xe7f1725e7734ce288f8367e1bb143e90bb3f0512",
        "gas": "0x1b693",
        "value": "0x0",
        "input": "0x6f0372af000000000000000000000000000000000000000000000000000000000000053a00000000000000000000000070997970c51812dc3a010c7d01b50e0d17dc79c800000000000000000000000000000000000000000000000000000000000000640000000000000000000000000000000000000000000000000000000000000001",
        "nonce": "0x1",
        "chainId": "0x539"
      },
      "additionalContracts": [],
      "isFixedGasLimit": false
    }
  ],
  "receipts": [
    {
      "status": "0x1",
      "cumulativeGasUsed": "0xb741",
      "logs": [
        {
          "address": "0x5fbdb2315678afecb367f032d93f642f64180aa3",
          "topics": [
            "0x8c5be1e5ebec7d5bd14f71427d1e84f3dd0314c0f7b2291e5b200ac8c7c3b925",
            "0x00000000000000000000000070997970c51812dc3a010c7d01b50e0d17dc79c8",
            "0x000000000000000000000000e7f1725e7734ce288f8367e1bb143e90bb3f0512"
          ],
          "data": "0x0000000000000000000000000000000000000000000000000000000000000064",
          "blockHash": "0x3b93e3317724c765f8540c5ba24cf0bbe9c198d8c6636aedc151780dacab63ba",
          "blockNumber": "0x9",
          "blockTimestamp": "0x69184e9e",
          "transactionHash": "0x045062a8e9aa9d306ebf07799525cee8518f090f10c5126147f3f101d0ebdb21",
          "transactionIndex": "0x0",
          "logIndex": "0x0",
          "removed": false
        }
      ],
      "logsBloom": "0x00000000000000000402000000000000000000000000000000000000000000000000000000000000000000000000000000000000000000000000000000200000000000000000000000000000000000000000000000000000000000000000000000000840000000000000000000000000000000000000000000000004000000000000000000000000000000000000000000000000000000000000000200000000020000000000000000000002000000000000000000000000000000000000000000000040000000000000000000000000000000000000000000000000000000000010000000000000000000000000000001000000000000000000000000000000",
      "type": "0x2",
      "transactionHash": "0x045062a8e9aa9d306ebf07799525cee8518f090f10c5126147f3f101d0ebdb21",
      "transactionIndex": "0x0",
      "blockHash": "0x3b93e3317724c765f8540c5ba24cf0bbe9c198d8c6636aedc151780dacab63ba",
      "blockNumber": "0x9",
      "gasUsed": "0xb741",
      "effectiveGasPrice": "0x14ff508c",
      "blobGasPrice": "0x1",
      "from": "0x70997970c51812dc3a010c7d01b50e0d17dc79c8",
      "to": "0x5fbdb2315678afecb367f032d93f642f64180aa3",
      "contractAddress": null
    },
    {
      "status": "0x1",
      "cumulativeGasUsed": "0x13d86",
      "logs": [
        {
          "address": "0x5fbdb2315678afecb367f032d93f642f64180aa3",
          "topics": [
            "0xddf252ad1be2c89b69c2b068fc378daa952ba7f163c4a11628f55a4df523b3ef",
            "0x00000000000000000000000070997970c51812dc3a010c7d01b50e0d17dc79c8",
            "0x000000000000000000000000e7f1725e7734ce288f8367e1bb143e90bb3f0512"
          ],
          "data": "0x0000000000000000000000000000000000000000000000000000000000000064",
          "blockHash": "0x8caca2672b803237f4d3597f3216084210073f63221e6bb4f2816cb744969ecf",
          "blockNumber": "0xa",
          "blockTimestamp": "0x69184e9e",
          "transactionHash": "0x1489175bbb859f7c2c0f0ecaa19c2838a4217ea681392635d4b99e65e1da7907",
          "transactionIndex": "0x0",
          "logIndex": "0x0",
          "removed": false
        },
        {
          "address": "0x5fbdb2315678afecb367f032d93f642f64180aa3",
          "topics": [
            "0xddf252ad1be2c89b69c2b068fc378daa952ba7f163c4a11628f55a4df523b3ef",
            "0x000000000000000000000000e7f1725e7734ce288f8367e1bb143e90bb3f0512",
            "0x0000000000000000000000000000000000000000000000000000000000000000"
          ],
          "data": "0x0000000000000000000000000000000000000000000000000000000000000064",
          "blockHash": "0x8caca2672b803237f4d3597f3216084210073f63221e6bb4f2816cb744969ecf",
          "blockNumber": "0xa",
          "blockTimestamp": "0x69184e9e",
          "transactionHash": "0x1489175bbb859f7c2c0f0ecaa19c2838a4217ea681392635d4b99e65e1da7907",
          "transactionIndex": "0x0",
          "logIndex": "0x1",
          "removed": false
        },
        {
          "address": "0xe7f1725e7734ce288f8367e1bb143e90bb3f0512",
          "topics": [
            "0x6a7b4b4de67d42edc5a43dd8bb598338e29e72e277cef089c6ad4ffe3aa61060",
            "0x00000000000000000000000070997970c51812dc3a010c7d01b50e0d17dc79c8",
            "0x000000000000000000000000000000000000000000000000000000000000053a",
            "0x00000000000000000000000070997970c51812dc3a010c7d01b50e0d17dc79c8"
          ],
          "data": "0x00000000000000000000000000000000000000000000000000000000000000640000000000000000000000000000000000000000000000000000000000000001",
          "blockHash": "0x8caca2672b803237f4d3597f3216084210073f63221e6bb4f2816cb744969ecf",
          "blockNumber": "0xa",
          "blockTimestamp": "0x69184e9e",
          "transactionHash": "0x1489175bbb859f7c2c0f0ecaa19c2838a4217ea681392635d4b99e65e1da7907",
          "transactionIndex": "0x0",
          "logIndex": "0x2",
          "removed": false
        }
      ],
      "logsBloom": "0x00000000000000000402000000000000000000000000040000000000000120000000000000000000000000000000000010000000000000000000000000000000000000000000000000000008000000000000000000000000000000000000000000000840020000000000000000000800020000000000000000000014000000000000000000000000000000000000000000000000000000000000000200000000000000000000000000000002000000000000000000000000000000000000000000000042000000000000004000021000000000000000000000000000000020000000000000000000000000000000000001000000000000800000000000000000",
      "type": "0x2",
      "transactionHash": "0x1489175bbb859f7c2c0f0ecaa19c2838a4217ea681392635d4b99e65e1da7907",
      "transactionIndex": "0x0",
      "blockHash": "0x8caca2672b803237f4d3597f3216084210073f63221e6bb4f2816cb744969ecf",
      "blockNumber": "0xa",
      "gasUsed": "0x13d86",
      "effectiveGasPrice": "0x12618073",
      "blobGasPrice": "0x1",
      "from": "0x70997970c51812dc3a010c7d01b50e0d17dc79c8",
      "to": "0xe7f1725e7734ce288f8367e1bb143e90bb3f0512",
      "contractAddress": null
    }
  ],
  "libraries": [],
  "pending": [],
  "returns": {},
  "timestamp": 1763200670735,
  "chain": 1337,
  "commit": "87b10d0"
}